S015000044656275672F312D3231303331352E7331393F
S315200000000248854600F046F8FEE7C04600C00120BB
S3152000001080B586B000AFF860B9607A603B60002397
S315200000207B610AE0BB685A1CBA607A69511C796107
S315200000301100FA6852181B781370BB681B78002BC6
S31520000040F0D100233B6118E03A683B69DA4013009F
S31520000050012213400BD07B685A1C7A607A69511CA6
S3152000006079611100FA6852181B78137002E07B68D8
S3152000007001337B603B6901333B617B681B78002B36
S31520000080E2D17B69FA68D31800221A70C046BD46B1
S3152000009006B080BD80B582B000AF074B7B60074BB2
S315200000A03B603A68796806482023FFF7B1FF0023B2
S315200000B01800BD4602B080BD280100203001002076
S315200000C0C400002000000000000000000000000026
S315200000D000000000000000000000000000000000FA
S315200000E000000000000000000000000000000000EA
S315200000F000000000000000000000000000000000DA
S3152000010000000000000000000000000000000000C9
S3152000011000000000000000000000000000000000B9
S31520000120000000000000000048656C6C6F000000B5
S3112000013020576F726C6421210000000033
S70520000000DA
