S013000044656275672F6D6F70322D312E733139EF
S315200000000248854600F0ECF8FEE7C04600C0012015
S3152000001080B500AF154B00221A70154B00221A70BE
S31520000020144B00221A70144B1A68134B1204120C2C
S315200000301A60114B1A68104B10490A431A60104B6C
S315200000401B880F4AFF210B409BB213800D4B1A6869
S315200000500C4B1204120C1A600A4B1A68094BAA217F
S3152000006009040A431A60C046BD4680BD150C0240ED
S31520000070140C0240110C0240000C0240555500554C
S31520000080040C02400C0C024080B582B000AF7860B0
S315200000907B68042B1BD07B68042B1CD87B68032B26
S315200000A011D07B68032B16D87B68012B03D07B6885
S315200000B0022B04D00FE00C4B10221A700FE00A4BD3
S315200000C020221A700BE0084B40221A7007E0064BDC
S315200000D080221A7003E0044B00221A70C046C046E4
S315200000E0BD4602B080BDC046150C024080B582B028
S315200000F000AF124AFB1D12781A70FB1D1B780822CE
S31520000100134001D0042315E0FB1D1B780422134065
S3152000011001D003230EE0FB1D1B780222134001D0E1
S31520000120022307E0FB1D1B780122134001D0012387
S3152000013000E000231800BD4602B080BD110C02402D
S3152000014090B587B000AF3B00164A13CA13C3126896
S315200001501A6001237B611AE07B691800FFF794FF80
S31520000160FFF7C4FF03003B613B69002B0CD0002046
S31520000170FFF78AFF7B69013B9B001A003B69D31876
S31520000180013B3A00D35C09E07B6901337B617B69E3
S31520000190042BE1DD0020FFF777FFFF231800BD4683
S315200001A007B090BD0802002080B582B000AF0200E3
S315200001B0FB1D1A70FB1D1B780F2B03D9064B002243
S315200001C01A7005E0FB1D1B780349044AD35C0B70AB
S315200001D0BD4602B080BDC046140C0240F801002086
S315200001E080B500AFFFF714FFFFF7AAFF0300180042
S315200001F0FFF7DAFFF8E7C0463F065B4F666D7D07DF
S315200002007F67777C395E79710102030A0405060B44
S30D200002100708090C0E000F0D72
S70520000000DA
