S017000044656275672F61736369695F646973702E733139AF
S315200000000248854600F0E3F9FEE7C04600C001201D
S3152000001080B584B000AF0200FB1D1A70094A0F217B
S315200000207B1812781A70FA1D7B1812781B781343E6
S31520000030DBB2044A04210B43DBB21370C046BD4633
S3152000004004B080BD1410024080B584B000AF020019
S31520000050FB1D1A700D4A0F217B1812781A70FB1D92
S315200000601B785BB2DB435BB27A18127852B213402C
S315200000705AB27B181A70054A7B181B7804210B4349
S31520000080DBB21370C046BD4604B080BD14100240DA
S3152000009080B582B000AF0200FB1D1A704020FFF72A
S315200000A0B7FF064AFB1D1B7813704020FFF7CCFFD5
S315200000B000F08AF8C046BD4602B080BD1510024049
S315200000C080B582B000AF4020FFF7A2FF00F07CF899
S315200000D000F07AF8064AFB1D12781A704020FFF7C6
S315200000E0B3FFFB1D1B781800BD4602B080BDC0467D
S315200000F01110024090B583B000AF0B4B0B4A1A602B
S315200001000220FFF785FF0120FFF79EFFFC1DFFF76A
S31520000110D7FF03002370044B054A1A60FB1D1B788A
S315200001201800BD4603B090BD001002405555000092
S315200001305555555590B583B000AF0B4B0B4A1A60F9
S315200001400220FFF765FF0120FFF762FFFC1DFFF786
S31520000150B7FF03002370044B054A1A60FB1D1B786A
S315200001601800BD4603B090BD001002405555000052
S315200001705555555580B582B000AF0200FB1D1A704B
S315200001800120FFF761FF0220FFF75EFFFB1D1B78B2
S315200001901800FFF77DFFC046BD4602B080BD80B582
S315200001A082B000AF0200FB1D1A700120FFF730FF5E
S315200001B00220FFF749FFFB1D1B781800FFF768FF99
S315200001C0C046BD4602B080BD80B500AF0C4B0022B4
S315200001D01A600C4B29221A600B4B00221A60084B1E
S315200001E005221A60C046064B1A6880235B0213401C
S315200001F0F9D0034B00221A60C046BD4680BDC046DA
S3152000020010E000E014E000E018E000E080B582B0E5
S3152000021000AF78607B68FA229100180000F01EF982
S3152000022003007B607B6801337B600AE0FFF7CCFF2D
S31520000230FFF7CAFFFFF7C8FFFFF7C6FF7B68013B42
S315200002407B607B68002BF1D1C046C046BD4602B01C
S3152000025080BD80B582B000AF78607B68FA229100BD
S31520000260180000F0FBF803007B607B6801337B609D
S3152000027007E0FA239B001800FFF7C8FF7B68013BC5
S315200002807B607B68002BF4D1C046C046BD4602B0D9
S3152000029080BD80B584B000AF786039607B68DAB203
S315200002A00F217B18013A1A703B68022B04D17B1868
S315200002B07A18127840321A700F23FB181B78802286
S315200002C052421343DBB21800FFF754FFC046BD4627
S315200002D004B080BD80B582B000AF0200FB1D1A704D
S315200002E0C046FFF707FF03001A0080231340802B28
S315200002F0F7D00820FFF78AFFFB1D1B781800FFF7B1
S315200003004EFF2B20FFF782FFC046BD4602B080BDC0
S3152000031080B500AF044B054A1A60054B00221A70BF
S31520000320C046BD4680BDC0460010024055555555B5
S315200003301410024080B500AFC046FFF7DBFE030075
S315200003401A0080231340802BF7D00820FFF75EFF8A
S315200003503820FFF70FFF2720FFF758FFC046FFF78B
S31520000360C9FE03001A0080231340802BF7D00820F3
S31520000370FFF74CFF0E20FFF7FDFE2720FFF746FF75
S31520000380C046FFF7B7FE03001A0080231340802BD8
S31520000390F7D00820FFF73AFF0120FFF7EBFE0220F7
S315200003A0FFF757FFC046FFF7A5FE03001A0080237C
S315200003B01340802BF7D00820FFF728FF0620FFF7F1
S315200003C0D9FE2720FFF722FFC046BD4680BDB0B527
S315200003D08CB000AF786039601C243B191D4A23CAB3
S315200003E023C312881A800C23FB181B4A23CA23C353
S315200003F01188198092789A70FFF78AFFFFF79AFF83
S3152000040001210120FFF745FF3B19FB6206E0FB6A4D
S315200004105A1CFA621B781800FFF75CFFFB6A1B78F0
S31520000420002BF4D102210120FFF733FF0C23FB1808
S31520000430FB6206E0FB6A5A1CFA621B781800FFF77B
S3152000044049FFFB6A1B78002BF4D100231800BD4618
S315200004500CB0B0BD7405002084050020002243089E
S315200004608B4274D303098B425FD3030A8B4244D356
S31520000470030B8B4228D3030C8B420DD3FF22090298
S3152000048012BA030C8B4202D31212090265D0030B57
S315200004908B4219D300E0090AC30B8B4201D3CB034D
S315200004A0C01A5241830B8B4201D38B03C01A52418F
S315200004B0430B8B4201D34B03C01A5241030B8B4291
S315200004C001D30B03C01A5241C30A8B4201D3CB027C
S315200004D0C01A5241830A8B4201D38B02C01A524161
S315200004E0430A8B4201D34B02C01A5241030A8B4264
S315200004F001D30B02C01A5241CDD2C3098B4201D37C
S31520000500CB01C01A524183098B4201D38B01C01AF9
S31520000510524143098B4201D34B01C01A5241030970
S315200005208B4201D30B01C01A5241C3088B4201D31F
S31520000530CB00C01A524183088B4201D38B00C01ACC
S31520000540524143088B4201D34B00C01A5241411AF3
S3152000055000D20146524110467047FFE701B5002000
S3152000056000F006F802BDC0460029F7D076E77047AE
S315200005707047C046416C66616E756D657269736BB6
S3152000058020000000446973706C6179202D20746509
S30920000590737400005A
S70520000000DA
