S011000044656275672F352D31342E73313906
S315200000000248854600F06EF9FEE7C04600C0012092
S3152000001080B500AF0C4B00221A600C4B29221A60C7
S315200000200B4B00221A60084B05221A60C046064B6D
S315200000301A6880235B021340F9D0034B00221A6012
S31520000040C046BD4680BDC04610E000E014E000E09A
S3152000005018E000E080B582B000AF78607B68FA22B5
S315200000609100180000F052F903007B607B68013391
S315200000707B600AE0FFF7CCFFFFF7CAFFFFF7C8FF58
S31520000080FFF7C6FF7B68013B7B607B68002BF1D1C5
S31520000090C046C046BD4602B080BD80B582B000AF26
S315200000A078607B68FA229100180000F02FF903008F
S315200000B07B607B6801337B6007E0FA239B00180096
S315200000C0FFF7C8FF7B68013B7B607B68002BF4D180
S315200000D0C046C046BD4602B080BDF0DF7047C04670
S315200000E0F1DF7047C046F2DF7047C046F3DF704746
S315200000F0C04680B584B000AF786039607B681B68E5
S31520000100FB603B681A687B681A603B68FA681A606D
S31520000110C046BD4604B080BDB0B590B000AF786093
S3152000012020243A197B681000190002231A0000F0D7
S3152000013079F91C2579197B68022208009B1802226E
S31520000140190000F06FF92200BB181B78BB6129004B
S315200001507B181B787B61BB185B783B617B185B78CF
S31520000160FB60FA683B69D31AD9175A184A4079694D
S31520000170BB69CB1AD9175B184B409A4202DD012383
S31520000180FB6301E00023FB63FB6B002B0FD01023E6
S31520000190FA181823FB1811001800FFF7AAFF0C23E2
S315200001A0FA181423FB1811001800FFF7A2FFBA69EA
S315200001B07B699A420FDD1423FA181823FB181100C5
S315200001C01800FFF796FF0C23FA181023FB181100CE
S315200001D01800FFF78EFF0023BB633B693B637A69F8
S315200001E0BB69D31ABB62FA683B69D31ADA179B1824
S315200001F053407B623A69FB689A4202DA01237B63A9
S3152000020002E001235B427B63BB69FB6223E0FB6B5D
S31520000210002B06D0FA6A3B6B11001800FFF763FF2C
S3152000022005E03A6BFB6A11001800FFF75CFFBA6B1A
S315200002307B6AD318BB63BB6B5B00BA6A9A4207DC46
S315200002403A6B7B6BD3183B63BA6BBB6AD31ABB631F
S31520000250FB6A0133FB627B69FA6A9A42D7DBC046A6
S315200002601800BD4610B0B0BDF0B587B000AF7860BD
S315200002707B681A7810217B181A707B685A787B184D
S315200002805A707B685B687B6124E07B691A780C2056
S315200002903B181A707B695A783B185A7008257B19C7
S315200002A01026BA1912881A807B19022104003A18DE
S315200002B012885A527B191800FFF72EFF20003B1890
S315200002C01A78BB191A703B185A78BB195A707B6971
S315200002D05B687B617B69002BD7D1C0461800BD4681
S315200002E007B0F0BD80B500AFFFF7F7FEFFF7F8FEC9
S315200002F0054B1800FFF7B8FFFA235B001800FFF73D
S31520000300CCFEFFF7EDFEF3E7700400200022430841
S315200003108B4274D303098B425FD3030A8B4244D3A7
S31520000320030B8B4228D3030C8B420DD3FF220902E9
S3152000033012BA030C8B4202D31212090265D0030BA8
S315200003408B4219D300E0090AC30B8B4201D3CB039E
S31520000350C01A5241830B8B4201D38B03C01A5241E0
S31520000360430B8B4201D34B03C01A5241030B8B42E2
S3152000037001D30B03C01A5241C30A8B4201D3CB02CD
S31520000380C01A5241830A8B4201D38B02C01A5241B2
S31520000390430A8B4201D34B02C01A5241030A8B42B5
S315200003A001D30B02C01A5241CDD2C3098B4201D3CD
S315200003B0CB01C01A524183098B4201D38B01C01A4B
S315200003C0524143098B4201D34B01C01A52410309C2
S315200003D08B4201D30B01C01A5241C3088B4201D371
S315200003E0CB00C01A524183088B4201D38B00C01A1E
S315200003F0524143088B4201D34B00C01A5241411A45
S3152000040000D20146524110467047FFE701B5002051
S3152000041000F006F802BDC0460029F7D076E77047FF
S315200004207047C046002310B59A4200D110BDCC5C5F
S31520000430C4540133F8E70000141400000000000043
S315200004401437000038040020463C000040040020F9
S3152000045050230000480400206419000050040020A6
S315200004605A0A000058040020280A000060040020D0
S30D200004701414000068040020AA
S70520000000DA
