S016000044656275672F6D617A652D67616D652E73313954
S315200000000448854600F000FB00F0C8F900F05EFBCE
S31520000010FEE7C046003C002090B587B000AF786070
S315200000207B685B683B617B689B68FB6000237B6128
S315200000301CE07B68196808243B197A69043204207D
S3152000004052008A18121812881A803B191B781A0037
S315200000503B69D2183B195B781900FB68CB1819004D
S31520000060100000F095F97B6901337B617B681B6882
S315200000701B687A699A42DCDBC046C046BD4607B09B
S3152000008090BDB0B58AB000AF78600C243A197B6871
S315200000901000190002231A0001F0BAF80825791970
S315200000A07B68022208009B180222190001F0B0F892
S315200000B03B191B78FB617B191B78BB613B195B786D
S315200000C07B617B195B783B61FB697B6212E07B6914
S315200000D03B6208E03A6A7B6A1100180000F058F982
S315200000E03B6A01333B623A6A3B699A42F2DD7B6A9C
S315200000F001337B627A6ABB699A42E8DDC046C04614
S31520000100BD460AB0B0BD80B584B000AF786000238C
S31520000110FB600AE0FB689B007A68D318043318005A
S31520000120FFF7AFFFFB680133FB607B681B68FA684B
S315200001309A42EFDBC046C046BD4604B080BD90B5AE
S3152000014087B000AF78607B685B683B617B689B68A3
S31520000150FB6000237B611CE07B68196808243B193F
S315200001607A690432042052008A18121812881A80DA
S315200001703B191B781A003B69D2183B195B7819008A
S31520000180FB68CB181900100000F005F97B690133D4
S315200001907B617B681B681B687A699A42DCDBC046F8
S315200001A0C046BD4607B090BD80B582B000AF78602E
S315200001B07B681B681800FFF7C2FF7B681B685968BD
S315200001C07B685A687B681B688A185A607B681B683C
S315200001D099687B689A687B681B688A189A607B682E
S315200001E01B681800FFF718FFC046BD4602B080BD49
S315200001F080B584B000AFF860B9607A60FB68BA68F1
S315200002005A60FB687A689A60C046BD4604B080BDD5
S3152000021080B584B000AFF860B9607A60FB68BA68D0
S315200002205A60FB687A689A60C046BD4604B080BDB5
S31520000230B0B584B000AF0C257C192080082438196D
S315200002400180391D0A803A0013807B195A783B1D9C
S315200002505B789A4205D83B195A783B1D5B789A42BF
S315200002600CD23B1D5A780C217B185B789A4222D8F7
S315200002703B005A787B185B789A421CD30C23FB18D8
S315200002801A783B1D1B789A4206D80823FB181A7841
S315200002903B1D1B789A420CD23B1D1A780C217B18E9
S315200002A01B789A4207D83B001A787B181B789A420B
S315200002B001D3012300E000231800BD4604B0B0BDE1
S315200002C0F0B587B000AF0C23FB1818800823FB1865
S315200002D019807A6000237B6121E00823FB180C2219
S315200002E0BA18786879690625890041187C68786982
S315200002F004268000201880194C5B00212404240C3D
S31520000300090C090421431B6812680068FFF790FF57
S31520000310031E01D0012308E07B6901337B617B68E2
S315200003201B687A699A42D8DB00231800BD4607B0BD
S31520000330F0BD80B582B000AF78607B685B68002B2B
S3152000034001DC01231AE07B685A687B681B685B68BE
S31520000350D318802B01DD012310E07B689B68002BDE
S3152000036001DC01230AE07B689A687B681B689B682E
S31520000370D318402B01DD012300E000231800BD46E1
S3152000038002B080BDF0DF7047C046F1DF7047C0463F
S31520000390F2DF7047C046F3DF7047C04690B58BB09A
S315200003A000AF7A4B1B68986800230222002100F0D8
S315200003B067FF774B180000F049FF764B3B62764B80
S315200003C0FB61764BBB61FFF7DDFFFFF7DEFF3B6A84
S315200003D0DB683A6A10009847FA69CA235B00D3584B
S315200003E0FA6910009847BB69DB68BA69100098471C
S315200003F014243B1901221900032001F009F8031ED9
S3152000040004D02723FB183A1912781A702723FB18D1
S315200004101B78082B29D89A00614BD3181B689F4656
S31520000420BB691B69B86900220121984724E0BB6992
S315200004301B6901225142B869002298471CE0BB691A
S315200004401B69B86900220021984715E0BB691B6922
S3152000045001225242B869002198470DE0BB691B6909
S31520000460B86901220021984706E0BB691B69B86973
S31520000470002200219847C0463B6A5B68DAB2102109
S315200004807B181A703B6A9B68DAB27B185A703B6AF3
S315200004905B68DAB23B6A1B685B68DBB2D318DAB2F8
S315200004A00C217B181A703B6A9B68DAB23B6A1B6880
S315200004B09B68DBB2D318DAB27B185A70BB691B680B
S315200004C05B68DAB208203B181A70BB691B689B6808
S315200004D0DAB23B185A70BB691B685B68DAB2BB6933
S315200004E01B681B685B68DBB2D318DAB23B1D1A7037
S315200004F0BB691B689B68DAB2BB691B681B689B6873
S31520000500DBB2D318DAB23B1D5A70FA69391D3B1893
S3152000051009681868FFF7D4FE031E06D1BB691B685D
S315200005201800FFF706FF031E17D01E4B180000F019
S315200005308DFEBB691B69B869002200219847BB69FB
S315200005401B681A69BB691B6818009047BB691B6842
S31520000550042202211800FFF75BFE3B1D0822BA1871
S315200005600C217918102038181B6812680968006851
S31520000570FFF75EFE031E00D135E70B4B180000F097
S3152000058065FE00231800BD460BB090BD742D0020DB
S31520000590D82D0020B4290020C8290020482C00206E
S315200005A0302E00200C2E0020142E002080B584B082
S315200005B000AF7860114B1B68002B02D10F4B104AFD
S315200005C01A600E4B1B68FB600C4B1A687B68D218AE
S315200005D00C4B9A4207D902F07DF903000C221A60CF
S315200005E001235B4206E0054B1A687B68D218034B51
S315200005F01A60FB681800BD4604B080BDFC2E0020A2
S31520000600003000200038002080B584B000AF284B91
S3152000061000221A60274BFB6004E0FB685A1CFA6034
S3152000062000221A70FA68244B9A42F6D3234BFB60B9
S3152000063004E0FB685A1CFA6000221A70FA68204B04
S315200006409A42F6D30023BB6012E01E4BBA68920092
S31520000650D3587B607B68002B07D07B681B69002BF7
S3152000066003D07B681B6900209847BB680133BB60B9
S31520000670BB68042BE9DD144B1B6858680023022253
S31520000680002100F0FDFD104B1B6898680023022214
S31520000690002100F0F5FD0C4B1B68D86800230222D0
S315200006A0002100F0EDFDC046BD4604B080BDC04629
S315200006B0FC2E0020FC2E0020102F002000300020D1
S315200006C0003800205C2C0020742D002080B582B0DC
S315200006D000AF002000F074FF00237B6012E00D4B7A
S315200006E07A689200D3583B603B68002B07D03B6862
S315200006F05B69002B03D03B685B69002098477B68C9
S3152000070001337B607B68042BE9DDC046C046BD46CD
S3152000071002B080BD5C2C002080B582B000AF78602E
S3152000072001235B421800BD4602B080BD80B584B06F
S3152000073000AFF860B9607A6001235B421800BD46BD
S3152000074004B080BD80B582B000AF786039603B6868
S31520000750802292015A6000231800BD4602B080BD57
S3152000076080B584B000AFF860B9607A6000231800C5
S31520000770BD4604B080BD80B582B000AF78607B688E
S31520000780022B01D8012300E000231800BD4602B049
S3152000079080BD80B586B000AFF860B9607A600A4B3C
S315200007A0FA689200D3587B617B69002B01D1002324
S315200007B006E07B69DB6A7968BA681000984703000F
S315200007C01800BD4606B080BD5C2C002080B586B0E2
S315200007D000AFF860B9607A600A4BFA689200D35885
S315200007E07B617B69002B01D1002306E07B691B6BB3
S315200007F07968BA681000984703001800BD4606B00D
S3152000080080BDC0465C2C002080B582B000AF7860E9
S31520000810064B074A1A81054B00221A82034B054ACA
S315200008209A8101231800BD4602B080BD0010014008
S31520000830D90200000C20000080B582B000AF78609D
S31520000840034B00229A81C046BD4602B080BDC046F9
S315200008500010014080B500AF084B1B889BB21A00E0
S3152000086020231340202B04D1044B9B889BB2DBB260
S3152000087000E000231800BD4680BDC04600100140A0
S3152000088080B582B000AF0200FB1D1A70C0460B4B2C
S315200008901B889BB21A0080231340F8D0074AFB1D01
S315200008A01B789BB29380FB1D1B780A2B02D10D204F
S315200008B0FFF7E6FFC046BD4602B080BD00100140EE
S315200008C080B584B000AF786039603B68FB6006E095
S315200008D07B685A1C7A601B781800FFF7D1FF3B68AB
S315200008E05A1E3A60002BF3D1FB681800BD4604B0AF
S315200008F080BD90B585B000AF786039603B68FB60FD
S3152000090006E07C68631C7B60FFF7A4FF030023706E
S315200009103B685A1E3A60002BF3D1FB681800BD468F
S3152000092005B090BD80B582B000AF7860164B00222E
S315200009301A70164B00221A70154B00221A70154B8E
S315200009401A68144B1204120C1A60124B1A68114BB7
S3152000095011490A431A60114B1B88104AFF210B408C
S315200009609BB213800E4B1A680D4B1204120C1A60A0
S315200009700B4B1A680A4BAA2109040A431A60012361
S315200009801800BD4602B080BD150C0240110C024075
S31520000990140C0240000C024055550055040C024030
S315200009A00C0C024080B582B000AF7860C046BD46D0
S315200009B002B080BD80B582B000AF78607B68042B22
S315200009C01BD07B68042B1CD87B68032B11D07B683B
S315200009D0032B16D87B68012B03D07B68022B04D00F
S315200009E00FE00C4B10221A700FE00A4B20221A70CF
S315200009F00BE0084B40221A7007E0064B80221A7043
S31520000A0003E0044B00221A70C046C046BD4602B021
S31520000A1080BDC046150C024080B582B000AF124A98
S31520000A20FB1D12781A70FB1D1B780822134001D07B
S31520000A30042315E0FB1D1B780422134001D0032359
S31520000A400EE0FB1D1B780222134001D0022307E093
S31520000A50FB1D1B780122134001D0012300E0002357
S31520000A601800BD4602B080BD110C024090B587B07B
S31520000A7000AF3B00164A13CA13C312681A6001233B
S31520000A807B611AE07B691800FFF794FFFFF7C4FF2C
S31520000A9003003B613B69002B0CD00020FFF78AFF47
S31520000AA07B69013B9B001A003B69D318013B3A0046
S31520000AB0D35C09E07B6901337B617B69042BE1DD33
S31520000AC00020FFF777FFFF231800BD4607B090BD33
S31520000AD0542E0020B0B584B000AF786039600F2561
S31520000AE07C19FFF7C3FF030023707B191B78FF2BAC
S31520000AF001D1002305E07B680F22BA1812781A70FC
S31520000B0001231800BD4604B0B0BDC04680B584B0F0
S31520000B1000AF0200FB1D1A70094A0F217B181278BC
S31520000B201A70FA1D7B1812781B781343DBB2044A1D
S31520000B3004210B43DBB21370C046BD4604B080BD12
S31520000B401410024080B584B000AF0200FB1D1A705D
S31520000B500D4A0F217B1812781A70FB1D1B785BB289
S31520000B60DB435BB27A18127852B213405AB27B1822
S31520000B701A70054A7B181B7804210B43DBB21370CD
S31520000B80C046BD4604B080BD1410024080B582B078
S31520000B9000AF0200FB1D1A704020FFF7B7FF064A80
S31520000BA0FB1D1B7813704020FFF7CCFF00F08AF85E
S31520000BB0C046BD4602B080BD1510024080B582B049
S31520000BC000AF4020FFF7A2FF00F07CF800F07AF893
S31520000BD0064AFB1D12781A704020FFF7B3FFFB1D53
S31520000BE01B781800BD4602B080BDC04611100240D9
S31520000BF090B583B000AF0B4B0B4A1A600220FFF76B
S31520000C0085FF0120FFF79EFFFC1DFFF7D7FF03009E
S31520000C102370044B054A1A60FB1D1B781800BD463D
S31520000C2003B090BD0010024055550000555555554E
S31520000C3090B583B000AF0B4B0B4A1A600220FFF72A
S31520000C4065FF0120FFF762FFFC1DFFF7B7FF0300DA
S31520000C502370044B054A1A60FB1D1B781800BD46FD
S31520000C6003B090BD0010024055550000555555550E
S31520000C7080B582B000AF0200FB1D1A700120FFF77D
S31520000C8061FF0220FFF75EFFFB1D1B781800FFF7B0
S31520000C907DFFC046BD4602B080BD80B582B000AFA4
S31520000CA00200FB1D1A700120FFF730FF0220FFF71C
S31520000CB049FFFB1D1B781800FFF768FFC046BD469D
S31520000CC002B080BD80B500AF0C4B00221A600C4BE1
S31520000CD029221A600B4B00221A60084B05221A6043
S31520000CE0C046064B1A6880235B021340F9D0034B9B
S31520000CF000221A60C046BD4680BDC04610E000E016
S31520000D0014E000E018E000E080B582B000AF786023
S31520000D107B68FA229100180000F004F903007B603A
S31520000D207B6801337B600AE0FFF7CCFFFFF7CAFF41
S31520000D30FFF7C8FFFFF7C6FF7B68013B7B607B6838
S31520000D40002BF1D1C046C046BD4602B080BD80B55D
S31520000D5082B000AF78607B68FA229100180000F01C
S31520000D60E1F803007B607B6801337B6007E0FA23B0
S31520000D709B001800FFF7C8FF7B68013B7B607B6800
S31520000D80002BF4D1C046C046BD4602B080BD80B51A
S31520000D9084B000AF786039607B68DAB20F217B18A7
S31520000DA0013A1A703B68022B04D17B187A18127804
S31520000DB040321A700F23FB181B78802252421343AD
S31520000DC0DBB21800FFF754FFC046BD4604B080BD15
S31520000DD080B582B000AF0200FB1D1A70C046FFF737
S31520000DE007FF03001A0080231340802BF7D008202A
S31520000DF0FFF78AFFFB1D1B781800FFF74EFF2B20FD
S31520000E00FFF782FFC046BD4602B080BD80B582B0E6
S31520000E1000AF7860294B2A4A1A602A4B00221A8092
S31520000E20C046FFF7E5FE03001A0080231340802BFF
S31520000E30F7D00820FFF768FF3820FFF719FF272093
S31520000E40FFF762FFC046FFF7D3FE03001A00802398
S31520000E501340802BF7D00820FFF756FF0E20FFF710
S31520000E6007FF2720FFF750FFC046FFF7C1FE03000C
S31520000E701A0080231340802BF7D00820FFF744FF69
S31520000E800120FFF7F5FE0220FFF761FFC046FFF7BE
S31520000E90AFFE03001A0080231340802BF7D00820D2
S31520000EA0FFF732FF0620FFF7E3FE2720FFF72CFF90
S31520000EB001231800BD4602B080BDC0460010024086
S31520000EC0555555551410024080B582B000AF786054
S31520000ED0C046BD4602B080BD80B582B000AF786006
S31520000EE0396001210120FFF752FF06E07B685A1C7A
S31520000EF07A601B781800FFF76BFF3B685A1E3A6032
S31520000F00002BF3D101231800BD4602B080BDC04698
S31520000F1003B47146490840004900095E49008E44E1
S31520000F2003BC7047002243088B4274D303098B42CB
S31520000F305FD3030A8B4244D3030B8B4228D3030C83
S31520000F408B420DD3FF22090212BA030C8B4202D325
S31520000F501212090265D0030B8B4219D300E0090A4D
S31520000F60C30B8B4201D3CB03C01A5241830B8B4256
S31520000F7001D38B03C01A5241430B8B4201D34B033F
S31520000F80C01A5241030B8B4201D30B03C01A5241A4
S31520000F90C30A8B4201D3CB02C01A5241830A8B4229
S31520000FA001D38B02C01A5241430A8B4201D34B0212
S31520000FB0C01A5241030A8B4201D30B02C01A524176
S31520000FC0CDD2C3098B4201D3CB01C01A524183092A
S31520000FD08B4201D38B01C01A524143098B4201D364
S31520000FE04B01C01A524103098B4201D30B01C01A8F
S31520000FF05241C3088B4201D3CB00C01A5241830809
S315200010008B4201D38B00C01A524143088B4201D335
S315200010104B00C01A5241411A00D201465241104695
S315200010207047FFE701B5002000F0F0F802BDC0468A
S315200010300029F7D076E7704703460B437FD400227A
S3152000104043088B4274D303098B425FD3030A8B4236
S3152000105044D3030B8B4228D3030C8B420DD3FF22A0
S31520001060090212BA030C8B4202D31212090265D06E
S31520001070030B8B4219D300E0090AC30B8B4201D321
S31520001080CB03C01A5241830B8B4201D38B03C01A68
S315200010905241430B8B4201D34B03C01A5241030BDF
S315200010A08B4201D30B03C01A5241C30A8B4201D390
S315200010B0CB02C01A5241830A8B4201D38B02C01A3B
S315200010C05241430A8B4201D34B02C01A5241030AB2
S315200010D08B4201D30B02C01A5241CDD2C3098B4297
S315200010E001D3CB01C01A524183098B4201D38B0114
S315200010F0C01A524143098B4201D34B01C01A5241B7
S3152000110003098B4201D30B01C01A5241C3088B42FB
S3152000111001D3CB00C01A524183088B4201D38B00E6
S31520001120C01A524143088B4201D34B00C01A524188
S31520001130411A00D201465241104670475DE0CA0F5F
S3152000114000D04942031000D34042534000229C461F
S3152000115003098B422DD3030A8B4212D3FC22890129
S3152000116012BA030A8B420CD3890192118B4208D3FF
S31520001170890192118B4204D389013AD0921100E061
S315200011808909C3098B4201D3CB01C01A5241830975
S315200011908B4201D38B01C01A524143098B4201D3A2
S315200011A04B01C01A524103098B4201D30B01C01ACD
S315200011B05241C3088B4201D3CB00C01A5241830847
S315200011C08B4201D38B00C01A5241D9D243088B429D
S315200011D001D34B00C01A5241411A00D20146634640
S315200011E052415B10104601D34042002B00D54942A4
S315200011F0704763465B1000D3404201B5002000F0E3
S3152000120005F802BD0029F8D016E770477047C0469A
S31520001210002310B59A4200D110BDCC5CC4540133D2
S31520001220F8E70EB417B5041E04D08369002B01D14C
S3152000123000F05EFA06AB2000059AA168019300F043
S31520001240A1FC1EBC08BC03B0184700000FB40B4B12
S3152000125013B51C68002C05D0A369002B02D12000F1
S3152000126000F046FA05AB2000049AA168019300F02D
S3152000127089FC16BC08BC04B01847C046742D002053
S31520001280F0B51D005D4B85B01E6804000F0000926E
S31520001290002E05D0B369002B02D1300000F028FAC9
S315200012A0574B9C4261D17468009B022B05D0012BC1
S315200012B000D99DE0002D00DA9AE0636EDB0705D4A5
S315200012C0A3899B0502D4A06D00F0EEFA2100300020
S315200012D000F036F9616B002908D023004433994287
S315200012E002D0300000F070FB002363630023A3616B
S315200012F06360A3891B0603D53000216900F064FBD7
S31520001300A389404A1340A381009B022B00D169E0A8
S3152000131003AB2100300002AA00F0CEFAA3890343D2
S31520001320A381002D2BD1029D280000F031FB071E42
S3152000133053D1029B0193AB4249D101256D42022331
S31520001340A289616E13430022A260220047322260E6
S31520001350226101221BB2A3816261114234D19B0515
S3152000136032D4A06D00F0A6FA2EE0274B9C4201D184
S31520001370B46899E7254B9C4296D1F46894E7002FF0
S31520001380D2D0B369002B02D1300000F0B1F9009B16
S31520001390012B02D1A2891343A381A289082311001C
S315200013A027602761656119401A421FD0D3071BD5D4
S315200013B000236D42A360A561616E01230D001D40CF
S315200013C0194218D19305CCD5280005B0F0BD019857
S315200013D000F0DEFA019D071EAFD08023A2891343B9
S315200013E0A381CEE70025AAE7A560E5E7A160E3E7AC
S315200013F001256D42E8E70025E6E7C046742D00206A
S31520001400882E00205CF3FFFFA82E0020682E0020E7
S3152000141010B513000A0001000248006800F07AFEA9
S3152000142010BDC046742D0020F7B58B8905000C0031
S315200014301A075FD44A68002A04DC0A6C002A01DCF9
S315200014400020FEBDE76A002FFAD0002280212E68F8
S315200014502A601A0049010A400B4234D0606DA389E4
S315200014605B0706D56368C01A636B002B01D0236C1B
S31520001470C01A0200216A00232800E76AB847A1891A
S31520001480431C06D12B681D2B31D82C4ADA40D307B2
S315200014902DD50023636023692360CB0405D5431C27
S315200014A002D12B68002B00D16065616B2E6000296C
S315200014B0C6D023004433994202D0280000F084FA93
S315200014C000206063BDE701232800216AB847431C3A
S315200014D0C5D12B68002BC2D01D2B01D0162B01D1D4
S315200014E02E60ADE74023A2891343A381A9E74023B9
S315200014F00B43FAE70F69002FA2D00A680F60D21BB0
S31520001500019200229B0700D14A69A260019B002B11
S3152000151000DC95E73A002800019B216AA66AB047BD
S31520001520002806DC40230120A28940421343A381E0
S3152000153087E7019B3F181B1A0193E7E7010040202C
S315200015400B6970B505000C00002B02D10025280080
S3152000155070BD002804D08369002B01D100F0C8F8A3
S31520001560144B9C421BD16C680C22A35E002BEDD041
S31520001570626ED20704D49B0502D4A06D00F094F9C4
S3152000158028002100FFF750FF636E0500DB07DED43D
S31520001590A3899B05DBD4A06D00F08CF9D7E7064B19
S315200015A09C4201D1AC68DFE7044B9C42DCD1EC685D
S315200015B0DAE7C046882E0020A82E0020682E0020BC
S315200015C0010010B5002805D1054B0649186800F022
S315200015D046F910BD044B1868FFF7B2FFF9E7C0467D
S315200015E0642E002041150020742D0020002310B504
S315200015F00400036043608360818143661900C281D1
S3152000160003614361836108225C3000F0D5F9054B04
S315200016106362054B2462A362044BE362044B23639B
S3152000162010BDC0464922002075220020AD22002090
S31520001630D922002010B5024900F011F910BDC0468C
S3152000164041150020436E10B5DB0705D483899B0521
S3152000165002D4806D00F028F9002010BD436E10B52D
S31520001660DB0705D483899B0502D4806D00F022F91F
S31520001670002010BD70B568254A1E55430E0029006E
S31520001680743100F0EBF9041E08D000212A00016015
S3152000169046600C30A060683200F08EF9200070BDE4
S315200016A010B5024B1868FFF7C5FF10BD642E002049
S315200016B010B5024800F0F8F810BDC046082F0020EB
S315200016C010B5024800F0F6F810BDC046082F0020DD
S315200016D010B5024800F0E8F810BDC046032F0020E0
S315200016E010B5024800F0E6F810BDC046032F0020D2
S315200016F013B50400FFF7ECFFA369002B02D0FFF718
S31520001700EFFF13BDA364E3642365134B134A1B68E1
S31520001710A2620193A34201D10123A361200000F01C
S315200017201FF86060200000F01BF8A060200000F089
S3152000173017F800220421E0606068FFF757FF0122B6
S315200017400921A068FFF752FF02221221E068FFF765
S315200017504DFF0123A361D2E7642E00203516002019
S31520001760F8B50700FFF7A4FF1F4B1E68B369002BCF
S3152000177002D13000FFF7BCFF4836B4687368013BDE
S3152000178004D53368002B22D03668F6E70C22A55EF6
S31520001790002D1AD12000154B5830E360656600F005
S315200017A07FF8FFF78DFF2000082229002560A5601D
S315200017B0656025616561A5615C3000F0FDF86563B3
S315200017C0A563A564E5642000F8BD6834D7E7042145
S315200017D03800FFF74FFF041E3060D5D1FFF770FFAA
S315200017E00C233B60EFE7C046642E00200100FFFF7C
S315200017F010B5FFF75DFF034B0349186800F014F896
S3152000180010BDC046742D00204516002010B5044B8F
S315200018100449186800F008F8FFF752FF10BDC046CB
S31520001820742D00205D160020F7B5483004000026F0
S315200018300191A5686768013F04D52468002CF8D17A
S315200018403000FEBDAB89012B07D90E22AB5E0133DA
S3152000185003D02800019B984706436835EBE7F7B588
S31520001860040006000027019148346368A5680093A8
S31520001870009B013B009304D52468002CF5D1380049
S31520001880FEBDAB89012B08D90E22AB5E013304D0F5
S3152000189029003000019B984707436835E8E77047E1
S315200018A07047704770477047704701207047012086
S315200018B0704770477047000070B50E001D000E235C
S315200018C0C95E140096B0002907DA00232B60B3897D
S315200018D01B0611D48023DB000FE06A4600F000FED1
S315200018E00028F2DBF02301991B021940054BC91889
S315200018F04B4259412960EDE740230020236016B072
S3152000190070BDC04600E0FFFFF7B502268B890500B3
S315200019100C00334206D02300473323602361012382
S315200019206361F7BD6A4601ABFFF7C6FF0099070062
S31520001930280000F093F8002808D10C22A35E9A050F
S31520001940EFD4032293431E43A681E4E70F4BAB62F9
S315200019508023A28920601343A381009B20616361B9
S31520001960019B002B0DD028000E23E15E00F030FFF6
S31520001970002806D00322A38993431A000123134388
S31520001980A381A0890743A781CBE7C046351600204F
S3152000199010B5034B0100186800F060F810BDC04672
S315200019A0742D002010B5034B0100186800F00CF8C8
S315200019B010BDC046742D002003008218934200D12A
S315200019C0704719700133F9E770B50500002910D06A
S315200019D00C1F2368002B00DAE418280000F03CFFD7
S315200019E01D4A1368002B05D163601460280000F09F
S315200019F03BFF70BDA34208D9216860188342F3D10A
S31520001A0018685B6841182160EEE71A005B68002BB6
S31520001A1001D0A342F9D911685018A0420BD12068F1
S31520001A200918501811608342E0D118685B68411884
S31520001A3011605360DAE7A04202D90C232B60D5E768
S31520001A4021686018834203D118685B6841182160B9
S31520001A5063605460CAE7C046003C0020F8B5032303
S31520001A60CD1C9D43083506000C2D1FD20C25A942FE
S31520001A701ED8300000F0F0FE25490A681400002C1C
S31520001A801AD1244F3B68002B04D12100300000F0EE
S31520001A90C9FB38602900300000F0C4FB431C2BD161
S31520001AA00C233000336000F0DFFE03E0002DDEDA89
S31520001AB00C2333600020F8BD23685B1B19D40B2B45
S31520001AC003D92360E418256003E06368A2420ED19F
S31520001AD00B60300000F0C8FE200007220B30231DCB
S31520001AE09043C21A9842E6D01B1AA350E3E75360EC
S31520001AF0EFE722006468C2E70323C41C9C43A0428C
S31520001B00E1D0211A300000F08DFB431CDBD1C7E762
S31520001B10003C0020043C0020936810B5013B9360F4
S31520001B20002B04DA9469A34207DB0A2905D013683F
S31520001B30581C10601970080010BD00F0D3FB01007E
S31520001B40F9E7F8B506000F001400D518AC4201D10C
S31520001B50002007E021783A003000FFF7DDFF01344E
S31520001B60431CF3D1F8BD936810B51400002B02D1A5
S31520001B701800536010BD00F0C5FC0023A36063600D
S31520001B80F8E70000F0B5A1B006000C001F00039294
S31520001B90002804D08369002B01D1FFF7A9FD8E4BC5
S31520001BA09C421CD17468636EDB0705D4A3899B0510
S31520001BB002D4A06DFFF778FEA3891B0702D52369FF
S31520001BC0002B1DD12100300000F000FC002817D08A
S31520001BD0636EDB070DD50120404221B0F0BD7F4B5F
S31520001BE09C4201D1B468DEE77D4B9C42DBD1F46890
S31520001BF0D9E7A3899B05EED4A06DFFF75BFEEAE744
S31520001C00002308AD6B6120336B761033AB760797D4
S31520001C10039F3B78002B01D0252B4ED1039BFB1A2B
S31520001C200593039B9F420DD0059B21003000039A0C
S31520001C30FFF787FF431C00D1B5E06A69059B9446F0
S31520001C4063446B613B78002B00D1ACE001227B1C06
S31520001C500393002352426A6004A9543252182B601F
S31520001C60EB60AB601370AB65039B052219785D486A
S31520001C7000F0D4FD039B5F1C002820D12A68D306E0
S31520001C8004D5532304A95B1820211970130704D502
S31520001C90532304A95B182B211970039B1B782A2B2D
S31520001CA016D00021EB68039F3A78781C303A844698
S31520001CB0092A4FD9002911D117E00137A9E7494B45
S31520001CC02A68C01A0123834013432B600397CBE76E
S31520001CD0079B191D1B680791002B01DB0B9304E062
S31520001CE05B42EB60022313432B603B782E2B0AD1F9
S31520001CF07B782A2B37D1079B02371A1D1B68079240
S31520001D00002B2DDB099303223978374800F086FD16
S31520001D10002807D0344B2A68C01A40238340134337
S31520001D2001372B6039787B1C0622304803932976AD
S31520001D3000F074FD002845D02D4B002B27D107221B
S31520001D40079B07339343083307936B69049A9B18C1
S31520001D506B615DE70A214B4367469B180939A3E768
S31520001D6001235B42CEE700231A0001376B603978E6
S31520001D70781C30398446092903D9002BC3D009920F
S31520001D80C1E70A235A4367465218093BEFE707ABD8
S31520001D900093220029003000164B00E000BF04907B
S31520001DA0049B0133D1D1636EDB0705D4A3899B0540
S31520001DB002D4A06DFFF77EFDA3895B0600D50AE756
S31520001DC00D980AE707AB0093220029003000094B43
S31520001DD000F08EF8E3E7C046882E0020A82E0020CB
S31520001DE0682E0020C82E0020CE2E0020D22E0020C5
S31520001DF000000000431B002010B513000A0001005C
S31520001E0002480068FFF7BEFE10BDC046742D0020B4
S31520001E10F7B5150001938A680B690C000090934270
S31520001E2000DA130022002B6043321278002A01D0F8
S31520001E3001332B6023689B0602D52B6802332B6067
S31520001E402268062317001F401A4227D02300433357
S31520001E501B785A1E93412268920630D4220001999B
S31520001E600098089E4332B047431C25D0062320689D
S31520001E702A68E16800250340042B03D18D1AEB4321
S31520001E80DB171D40A3682269934201DD9B1AED18DA
S31520001E900027BD4220D1002010E00137E3682A68E0
S31520001EA09B1ABB42D2DD2200012301990098089E8D
S31520001EB01932B047431CF0D101204042FEBD3020EC
S31520001EC0E1184331087021005A1C45310978A218BF
S31520001ED0433202331170C1E7220001230199009891
S31520001EE0089E1A32B047431CE6D00137D1E70000DE
S31520001EF0F0B58BB006920A00433207930590049200
S31520001F000A7E0C00109B782A06D8622A08D8002A56
S31520001F1000D1C0E0582A52D026004236327022E044
S31520001F20100063381528F7D8FEF7F2FF16001F00B9
S31520001F30F6FFF6FFF6FFF6FF1F00F6FFF6FFF6FFA9
S31520001F40F6FFA80036009A00F6FFF6FFB900F6FF66
S31520001F503600F6FFF6FF9E0026001A684236111D4F
S31520001F601960136833700123A7E0086819680A1DF1
S31520001F7005060BD50D681A60002D03DA2D23049A69
S31520001F806D421370614B0A27039332E00D681A6085
S31520001F904106F1D52DB2EFE70D681968081D1860C6
S31520001FA02E0601D50D6803E06D06FBD50D68ADB292
S31520001FB0564B0A2703936F2A17D1082715E0453178
S31520001FC00A70524A03921A68216820CA1A600806C3
S31520001FD050D5CB0702D52023194321601027002D89
S31520001FE003D1202322689A43226023000022433310
S31520001FF01A706368A360002B03DB042221689143D7
S315200020002160002D02D1049E002B0CD0049E2800B6
S315200020103900FFF70DF8039B013E5B5C33702B0004
S3152000202005009F42F3D9082F09D12368DB0706D57F
S3152000203063682269934202DC3023013E3370049B9D
S315200020409B1B2361079B210000930598069B09AAE9
S31520002050FFF7DEFE431C35D1012040420BB0F0BD18
S31520002060202209680A432260220078214532117015
S31520002070274AA7E74806ACD5ADB2AAE71A680D6885
S31520002080101D4969186013682E0601D5196002E0F3
S315200020906D06FBD519800023049E2361D2E71A68BA
S315200020A0111D1960166800213000626800F0B6FB29
S315200020B0002801D0801B6060636823610023049A96
S315200020C01370BFE72369320006990598079DA84734
S315200020D0431CC1D023689B0715D4099BE06898420E
S315200020E0BCDA1800BAE72200012306990598079E54
S315200020F01932B047431CAFD00135E368099A9B1AC1
S31520002100AB42F0DCE9E70025F7E7C046D92E0020F0
S31520002110EA2E002070B50400080011001A000023E2
S31520002120054D2B60FEF752FB431C03D12B68002B79
S3152000213000D0236070BDC0460C2F002070B50D0066
S3152000214009680400002901D0FFF7F8FF29002000C4
S31520002150FFF73AFC70BD0000314B70B51B680400D8
S31520002160834249D0436A002B0AD00025DB68AB4264
S3152000217047D1636A1968002902D02000FFF724FCA2
S315200021806169002902D02000FFF71EFC616A002940
S3152000219002D02000FFF718FCA16B002902D02000F6
S315200021A0FFF712FCE16B002902D02000FFF70CFCA0
S315200021B0216C002902D02000FFF706FCE16D0029E2
S315200021C002D02000FFF700FCA16D002902D02000DC
S315200021D0FFF7FAFB616B002902D02000FFF7F4FB22
S315200021E0A369002B08D02000A36A9847A16C002978
S315200021F002D02000FFF7A2FF70BD4959002908D15F
S315200022000435636AD968802DF7D12000FFF7DCFBFF
S31520002210AFE70E682000FFF7D7FB3100EEE7C04698
S31520002220742D0020002370B5064D040008002B6095
S31520002230FEF7BCF9431C03D12B68002B00D023608A
S3152000224070BDC0460C2F002070B50C000E25495FCE
S31520002250FFF760FF002803DB636D1B18636570BD05
S31520002260A389024A1340A381F9E7C046FFEFFFFF87
S3152000227000207047F8B51F008B8905000C0016005A
S31520002280DB0505D50E23C95E0022022300F0B2FA33
S31520002290A389054A28001340A38132000E23E15E5C
S315200022A03B0000F07FF8F8BDFFEFFFFF70B50C0094
S315200022B00E25495F00F09EFAA389421C03D1054AE8
S315200022C01340A38170BD802252011343A381606510
S315200022D0F8E7C046FFEFFFFF10B50E23C95E00F0FA
S315200022E0EDF810BDF8B505000E001400002804D046
S315200022F08369002B01D1FFF7FBF9224B9C422ED19B
S315200023006C68A369A360A3891B0732D52369002BB8
S315200023102FD023682269F7B2981A6369F6B28342EE
S3152000232005DC21002800FFF70BF9002827D1A36838
S315200023300130013BA36023685A1C22601F70636929
S31520002340834204D0A389DB0707D50A2E05D12100B5
S315200023502800FFF7F5F8002811D13000F8BD0A4B08
S315200023609C4201D1AC68CCE7084B9C42C9D1EC68B1
S31520002370C7E72100280000F029F80028C9D0012647
S315200023807642EAE7882E0020A82E0020682E00201C
S3152000239010B5034B0A0001001868FFF7A3FF10BD14
S315200023A0742D002070B50400080011001A000023C7
S315200023B0054D2B60FEF7EDF9431C03D12B68002B4E
S315200023C000D0236070BDC0460C2F0020374B70B55F
S315200023D01D6806000C00002D05D0AB69002B02D12C
S315200023E02800FFF785F9324B9C420FD16C680C23ED
S315200023F0E25E93B211072DD4D90611D40923012008
S31520002400336037331343A381404270BD294B9C422E
S3152000241001D1AC68EBE7284B9C42E8D1EC68E6E7B3
S315200024205B0713D5616B002908D0230044339942FA
S3152000243002D03000FFF7C8FA002363632422A38961
S315200024409343A38100236360236923600823A28921
S315200024501343A3812369002B0BD1A0218022A389BA
S31520002460890092000B40934203D021003000FFF7F1
S315200024704BFA0C22A35E01201A0099B202400342B5
S315200024800FD00022A26062695242A2610020226916
S315200024908242BAD10A06B8D540221343A381013815
S315200024A0B3E7880700D46269A260EFE7742D0020A5
S315200024B0882E0020A82E0020682E0020002370B52C
S315200024C0064D040008002B60FEF726F9431C03D1B5
S315200024D02B68002B00D0236070BDC0460C2F002037
S315200024E0002370B5064D0400080011002B60FEF78E
S315200024F029F9431C03D12B68002B00D0236070BD23
S315200025000C2F0020F0B5936887B00C000290039240
S315200025100093002B02D1002007B0F0BD8B891B074A
S3152000252059D50B69002B56D0039B02221B680193B9
S31520002530A3891F001740134273D1012219001140AD
S31520002540134200D1A8E038003E0000970592009B78
S31520002550002B00D112E100280AD11A000A213000EE
S3152000256000F05CF9009B5F1C002801D00130871B1E
S31520002570009B04979F4200D90493206822696369CF
S31520002580904200D803E1A2689D18049AAA4200DC72
S31520002590FDE031002A0000F04CF9236821005B1988
S315200025A002982360FEF7CCFF002870D105987F1B88
S315200025B005D121000298FEF7C3FF002867D1009BB2
S315200025C076195B1B0093039B9B685D1B0493039BFF
S315200025D09D60BCD19FE721000298FFF7F7FE0028F7
S315200025E0A2D00120404297E7019B1E685D68083310
S315200025F00193002DF8D0724A2B00954200D9130082
S315200026003200216A0298A76AB84700283FDD039B5B
S3152000261036189B682D1A0093181A039B9860E8D1E8
S3152000262079E700263500E4E7019B1B680493019BAC
S315200026305B680093019B08330193009B002BF3D02A
S315200026408023A2899B00A56820681A4264D0009B3B
S315200026509D4235D89023DB001A4231D00326636988
S3152000266021695E43471AF00F861900987B1C1B18B8
S315200026707610B34200D91E0053053ED5310002988C
S31520002680FFF7ECF9051E0AD10C23029A13604023AA
S31520002690A2891343A381A4E704910091CDE73A00D0
S315200026A02169FEF7B5FDA389464A1A4080231343C4
S315200026B0A3812561ED1925606661009DF61BA66044
S315200026C0009FBD4200D93D002A000499206800F0F1
S315200026D0B0F8A3685B1BA36023685D192560049B83
S315200026E0DB190493009BDB1B0093039B9B68DF1B7A
S315200026F00593039B9F60A0D10DE73200029800F05E
S31520002700BBF8051ED5D121690298FFF75DF9802215
S31520002710A3899343A381B7E72369834203D36769D8
S31520002720009B9F4217D9009B9D4200D91D002A007D
S31520002730049900F07EF8A36822685B1B52192F00CB
S31520002740A3602260002BCAD121000298FEF7F8FE72
S315200027500028C4D09BE7009A1B4B10009A4200D950
S315200027601A483900FEF768FC3B00049A4343216A65
S315200027700298A56AA847071EB1DC88E7019B0020BE
S315200027801E685B680093019B08330193DFE6049A79
S31520002790934208DCA56A3200216A0298A847051EE2
S315200027A000DD03E773E7049A310000F042F8049A4B
S315200027B0A36815009B1AA36023689B182360F5E67F
S315200027C000FCFF7F7FFBFFFFFEFFFF7FFFFFFF7FFA
S315200027D0002370B5064D040008002B60FDF7CBFFE3
S315200027E0431C03D12B68002B00D0236070BDC0464C
S315200027F00C2F002070B50400080011001A000023D9
S31520002800054D2B60FDF7ACFF431C03D12B68002B35
S3152000281000D0236070BDC0460C2F0020C9B282189C
S31520002820904201D10020704703788B42FBD00130C3
S31520002830F6E710B5884202D98B18984203D30023B5
S3152000284007E08B5C8354013AFBD210BDCC5CC454A8
S3152000285001339A42FAD1F8E710B50248FFF724F877
S3152000286010BDC046042F002010B50248FFF722F8FD
S3152000287010BDC046042F0020F8B507000D00160035
S31520002880002905D11100FFF7E9F804002000F8BD62
S31520002890002A03D1FFF798F83400F7E700F012F882
S315200028A02C00B042F2D231003800FFF7D7F8041ED0
S315200028B0ECD029003200FEF7ABFC29003800FFF7E8
S315200028C083F8E3E70B1F1B68181F002B01DA0B5850
S315200028D0C0187047014B18687047C046742D0020F9
S315200028E053000000400000008000000001000200AC
S315200028F003000400050009000A000B001200160060
S315200029001E001F00000101010501080109010B013C
S315200029100C01110112011C011F01200100020802F5
S315200029200C020D02110212021302160220020003EB
S3152000293003030403050308030D03100311030C030B
S3152000294020030004050408040D04100411041204D5
S31520002950130416041C0420040005010505050805BA
S3152000296009050C050D051305160517051805190586
S3152000297020050106020603060406050609060A06C0
S315200029800B060C06100613061F06200605071E0753
S315200029901F070000000000000000000000000000EB
S315200029A00000000000000000000000000000000001
S315200029B000000000E0280020510000003600000042
S315200029C0190000203F01002012000000000E150E05
S315200029D0341D3F1D5E1D7F1D0D1D191D3A287028B3
S315200029E01A2F262F4F3370332600262F3400341DFE
S315200029F03F083F1D4F084F285E085E1D6C086C116E
S31520002A007508751D0D1D0D3F3A283A347028703310
S31520002A104F334F3F00000000000000000000000080
S31520002A200000000000000000000000000000000080
S31520002A300000000000000000000000000000000070
S31520002A400000000000000000000000000000000060
S31520002A500000000000000000000000000000000050
S31520002A600000000000000000000000000000000040
S31520002A700000000000000000000000000000000030
S31520002A800000000000000000000000000000000020
S31520002A900000000000000000000000000000000010
S31520002AA00000000000000000000000000000000000
S31520002AB000000000000000000000000000000000F0
S31520002AC000000000000000000000000000000000E0
S31520002AD000000000000000000000000000000000D0
S31520002AE000000000000000000000000000000000C0
S31520002AF000000000000000000000000000000000B0
S31520002B00000000000000000000000000000000009F
S31520002B10000000000000000000000000000000008F
S31520002B20000000000000000000000000000000007F
S31520002B30000000000000000000000000000000006F
S31520002B40000000000000000000000000000000005F
S31520002B500000000000000000000000000701002027
S31520002B600C00000004000000040000000001000228
S31520002B700100010101020103020002010202020317
S31520002B800301030200000000000000000000000016
S31520002B90000000000000000000000000000000000F
S31520002BA000000000000000000000000000000000FF
S31520002BB000000000000000000000000000000000EF
S31520002BC000000000000000000000000000000000DF
S31520002BD000000000000000000000000000000000CF
S31520002BE000000000000000000000000000000000BF
S31520002BF000000000000000000000000000000000AF
S31520002C00000000000000000000000000000000009E
S31520002C10000000000000000000000000000000008E
S31520002C20000000000000000000000000000000007E
S31520002C3000000000602B00200200000004000000BD
S31520002C40190000203F010020342C00200000000045
S31520002C5000000000A9010020F1010020702C0020B6
S31520002C60A42C0020D82C00200C2D0020402D002044
S31520002C70737464696E00000000000000000000000C
S31520002C8009080020390800200000000077070020EE
S31520002C90000000000000000000000000000000000E
S31520002CA0F30800207374646F757400000000000040
S31520002CB0000000000908002039080020000000005C
S31520002CC07707002000000000000000000000000040
S31520002CD0C108002000000000737464657272000051
S31520002CE0000000000000000009080020390800202C
S31520002CF00000000077070020000000000000000010
S31520002D0000000000C1080020000000004B6579701B
S31520002D10616400000000000000000000250900207A
S31520002D20A5090020000000000000000000000000AF
S31520002D30000000000000000000000000D50A00206E
S31520002D404173636969446973706C6179000000009E
S31520002D500D0E0020C90E002000000000000000001B
S31520002D60000000000000000000000000D90E002036
S31520002D7000000000782D002000000000882E002092
S31520002D80A82E0020682E0020000000000000000071
S31520002D90000000000000000000000000000000000D
S31520002DA000000000000000000000000000000000FD
S31520002DB000000000000000000000000000000000ED
S31520002DC000000000000000000000000000000000DD
S31520002DD000000000000000000A57656C636F6D65F7
S31520002DE020746F20746865204D617A6567616D6512
S31520002DF0210A5472792066696E6420796F75722073
S31520002E00776179206F75742E000000000A4F756374
S31520002E10682100000A596F7520776F6E2120436F55
S31520002E206E74726174756C6174696F6E2100000036
S31520002E306A0400206A0400204C0400206A04002052
S31520002E402E0400203E040020200400206A040020D6
S31520002E505C0400200102030A0405060B0708090C7E
S31520002E600E000F0D782D002000000000000000004D
S31520002E70000000000000000000000000000000002C
S31520002E80000000000000000000000000000000001C
S31520002E90000000000000000000000000000000000C
S31520002EA000000000000000000000000000000000FC
S31520002EB000000000000000000000000000000000EC
S31520002EC00000000000000000232D302B2000686C3D
S31520002ED04C00656667454647003031323334353617
S31520002EE03738394142434445460030313233343550
S31520002EF03637383961626364656600000000000079
S31520002F00000000000000000000000000000000009B
S31520002F10000000000000000000000000000000008B
S31520002F20000000000000000000000000000000007B
S31520002F30000000000000000000000000000000006B
S70520000000DA
