S016000044656275672F4C656B74696F6E31322E7331398F
S315200000000248854600F038F8FEE7C04600C00120C9
S3152000001080B500AF154B9B899BB21A0080231340F5
S3152000002013D0124B1B881B06DB0FDBB2002B0CD028
S315200000300F4B1A780D4B92B29A800C4B9B899BB230
S315200000400A4A80218B439BB29381084B1B889B06CF
S31520000050DB0FDBB2002B05D0044B9B889BB2DAB2B8
S31520000060044B1A70C046BD4680BDC04600100140F4
S31520000070F9000020F800002080B582B000AF164BB2
S3152000008000221A82144B00229A82134B134A9A8119
S31520000090114B134A1A81134B134A1A60134B1A68D1
S315200000A0124B20210A431A60FB1D114A12781A703E
S315200000B00F4B00221A70FB1D1B78002BF4D00D4B22
S315200000C0FA1D12781A70044B9B899BB2024A802132
S315200000D00B439BB29381E7E7001001402C200000E0
S315200000E0D9020000D4C001201100002004E100E064
S311200000F0F8000020F900002000000000AD
S70520000000DA
