S022000044656275672F3230303630355F75707067335F657874695F6972712E7331397D
S315200000000248854600F086F8FEE7C04600C001207B
S3152000001080B500AF144B154A1A60154B00221A60A2
S31520000020144B1A68134B40210A431A60124B1A6864
S31520000030114B02210A431A60104B1A680F4B0221FA
S315200000400A431A600E4B1A680D4B02210A431A60A6
S315200000500C4B0D4A1A600D4B1A680C4B80210A4333
S315200000601A60C046BD4680BD000C02405555555508
S315200000700010024008380140003C0140083C014085
S315200000800C3C01405CC001209100002000E100E012
S3152000009080B500AF1A4B1B68022213402DD0194B96
S315200000A01B78DBB21A000123134012D0154B1B78A4
S315200000B0DBB21A000223134005D0134A134B1278E1
S315200000C0D2B21A7013E0104A114B1278D2B21A70BB
S315200000D00DE00C4B1B78DBB21A000223134003D031
S315200000E00A4BFF221A7002E0094BFF221A70044BBA
S315200000F01A68034B02210A431A60C046BD4680BDDA
S31520000100143C01401010024011100240150C024010
S31520000110140C024080B500AFFFF77AFFFEE7C04619
S70520000000DA
