S011000044656275672F352D31332E73313907
S315200000000248854600F0F9F9FEE7C04600C0012007
S3152000001080B500AF0C4B00221A600C4B29221A60C7
S315200000200B4B00221A60084B05221A60C046064B6D
S315200000301A6880235B021340F9D0034B00221A6012
S31520000040C046BD4680BDC04610E000E014E000E09A
S3152000005018E000E080B582B000AF78607B68FA22B5
S315200000609100180000F0EAF903007B607B680133F9
S315200000707B600AE0FFF7CCFFFFF7CAFFFFF7C8FF58
S31520000080FFF7C6FF7B68013B7B607B68002BF1D1C5
S31520000090C046C046BD4602B080BD80B582B000AF26
S315200000A078607B68FA229100180000F0C7F90300F7
S315200000B07B607B6801337B6007E0FA239B00180096
S315200000C0FFF7C8FF7B68013B7B607B68002BF4D180
S315200000D0C046C046BD4602B080BDF0DF7047C04670
S315200000E0F1DF7047C046F2DF7047C046F3DF704746
S315200000F0C04680B584B000AF786039607B681B68E5
S31520000100FB603B681A687B681A603B68FA681A606D
S31520000110C046BD4604B080BDB0B590B000AF786093
S3152000012020243A197B681000190002231A0000F0D7
S3152000013011FA1C2579197B68022208009B180222D5
S31520000140190000F007FA2200BB181B78BB612900B2
S315200001507B181B787B61BB185B783B617B185B78CF
S31520000160FB60FA683B69D31AD9175A184A4079694D
S31520000170BB69CB1AD9175B184B409A4202DD012383
S31520000180FB6301E00023FB63FB6B002B0FD01023E6
S31520000190FA181823FB1811001800FFF7AAFF0C23E2
S315200001A0FA181423FB1811001800FFF7A2FFBA69EA
S315200001B07B699A420FDD1423FA181823FB181100C5
S315200001C01800FFF796FF0C23FA181023FB181100CE
S315200001D01800FFF78EFF0023BB633B693B637A69F8
S315200001E0BB69D31ABB62FA683B69D31ADA179B1824
S315200001F053407B623A69FB689A4202DA01237B63A9
S3152000020002E001235B427B63BB69FB6223E0FB6B5D
S31520000210002B06D0FA6A3B6B11001800FFF763FF2C
S3152000022005E03A6BFB6A11001800FFF75CFFBA6B1A
S315200002307B6AD318BB63BB6B5B00BA6A9A4207DC46
S315200002403A6B7B6BD3183B63BA6BBB6AD31ABB631F
S31520000250FB6A0133FB627B69FA6A9A42D7DBC046A6
S315200002601800BD4610B0B0BDF0B589B000AF7860BB
S3152000027018243A197B681000190002231A0000F08E
S3152000028069F91F23FB187A6892781A701E217B1849
S315200002907A68D2781A701D203B183A1912781A708B
S315200002A01C257B193A1952781A703B1919781B2686
S315200002B0BB191F22BA1812788A181A701A217B18AD
S315200002C03A1952781A701423FB183A1812781A70B1
S315200002D014231800FB187A1912785A700300180094
S315200002E0FB18BA1912789A7003001800FB187A18AE
S315200002F01278DA700200BB181800FFF70DFFBB1941
S315200003003A1912781A703B1959781A23FB181E22AB
S31520000310BA1812788A181A7010221100BB181D20DC
S315200003203A1812781A707B187A1912785A707B1834
S31520000330BA1912789A700A001000BB181A217A1876
S315200003401278DA700200BB181800FFF7E5FE3B1999
S3152000035059787B191E22BA1812788A181A703B19F6
S315200003601978BB191F22BA1812788A181A700C220B
S315200003701100BB181D203A1812781A707B187A19AA
S3152000038012785A700A001100BB18BA1912789A709E
S315200003900A001000BB181A217A181278DA700200A7
S315200003A0BB181800FFF7B8FE3B1919781D203B181B
S315200003B01F22BA1812788A181A707B193A1952789D
S315200003C01A7008243B193A1812781A7020003B1824
S315200003D07A1912785A703B18BA1912789A703B1803
S315200003E01A217A181278DA703B181800FFF794FE53
S315200003F0C0461800BD4609B0F0BD80B582B000AF3A
S31520000400FFF76BFEFFF76CFE00237B600EE07B6838
S315200004109A00094BD3181800FFF726FFFA235B0032
S315200004201800FFF73AFE7B6801337B607B68042B5C
S31520000430EDD9FFF755FEE7E76805002000224308BF
S315200004408B4274D303098B425FD3030A8B4244D376
S31520000450030B8B4228D3030C8B420DD3FF220902B8
S3152000046012BA030C8B4202D31212090265D0030B77
S315200004708B4219D300E0090AC30B8B4201D3CB036D
S31520000480C01A5241830B8B4201D38B03C01A5241AF
S31520000490430B8B4201D34B03C01A5241030B8B42B1
S315200004A001D30B03C01A5241C30A8B4201D3CB029C
S315200004B0C01A5241830A8B4201D38B02C01A524181
S315200004C0430A8B4201D34B02C01A5241030A8B4284
S315200004D001D30B02C01A5241CDD2C3098B4201D39C
S315200004E0CB01C01A524183098B4201D38B01C01A1A
S315200004F0524143098B4201D34B01C01A5241030991
S315200005008B4201D30B01C01A5241C3088B4201D33F
S31520000510CB00C01A524183088B4201D38B00C01AEC
S31520000520524143088B4201D34B00C01A5241411A13
S3152000053000D20146524110467047FFE701B5002020
S3152000054000F006F802BDC0460029F7D076E77047CE
S315200005507047C046002310B59A4200D110BDCC5C2E
S31520000560C4540133F8E700000A0A140A19190A14B8
S31120000570281E46143C230A0A460A0505EC
S70520000000DA
