S024000044656275672F313930335F325F657874695F7379737469636B5F6972712E7331392F
S315200000000248854600F00CF9FEE7C04600C00120F4
S3152000001080B500AF074B00221A60074B074A1A80AB
S31520000020044B00221A60064B00221A60C046BD46C9
S3152000003080BDC046000C0240040C0240555500000D
S315200000400C0C024080B500AF0B4B1B78DBB2002BAB
S3152000005004D00A4B1B685A1C084B1A60084B1B78A5
S31520000060DBB2002B04D0074B1B685A1C054B1A60C9
S31520000070C046BD4680BDC046CC020020D00200202E
S31520000080CD020020D402002080B500AF084B094ADB
S315200000901A60094B00221A60084B094A1A60094B5C
S315200000A000221A60044B07221A60C046BD4680BD56
S315200000B03CC001204500002010E000E014E000E0F4
S315200000C07FA2190018E000E080B500AF0F4B1B6837
S315200000D00122134016D00D4B1A680C4B01210A43FE
S315200000E01A600B4B1B78DBB21A000123134006D093
S315200000F0084B01221A70084B00221A6002E0054BB9
S3152000010000221A70C046BD4680BDC046143C014040
S31520000110100C0240CC020020D002002080B500AF97
S315200001200F4B1B680222134016D00D4B1A680C4B3E
S3152000013002210A431A600B4B1B78DBB21A000223FA
S31520000140134006D0084B01221A70084B00221A6071
S3152000015002E0054B00221A70C046BD4680BDC0464F
S31520000160143C0140100C0240CD020020D402002095
S3152000017080B500AF134B1A68124B44210A431A600C
S31520000180114B1A68104B03210A431A600F4B1A6849
S315200001900E4B03210A431A600D4B1A680C4B0321A0
S315200001A00A431A600B4B0C4A1A600C4B0C4A1A6015
S315200001B00C4B1A680B4BC0210A431A60C046BD4639
S315200001C080BDC04608380140003C0140083C014043
S315200001D00C3C014058C00120C90000205CC0012011
S315200001E01D01002000E100E080B582B000AF0200D2
S315200001F0FB1D1A70FB1D1B780F2B03D9064B002203
S315200002001A7005E0FB1D1B780349044AD35C0B706A
S31520000210BD4602B080BDC046140C0240D802002064
S3152000022080B582B000AF244B00221A70234B0022E7
S315200002301A70234B00221A60224B00221A60FFF705
S31520000240E7FEFFF795FFFFF71FFF1F4B1B78DBB27B
S315200002505BB2002B15DA194B1B78DBB2002B03D0CF
S31520000260FB1D10221A7021E0164B1B68092B03D99F
S31520000270FB1D0E221A7019E0124B1A68FB1D1A700C
S3152000028014E00D4B1B78DBB2002B03D0FB1D102294
S315200002901A700BE00A4B1B68092B03D9FB1D0E2293
S315200002A01A7003E0064B1A68FB1D1A70FB1D1B789B
S315200002B01800FFF799FFC8E7CC020020CD020020E6
S315200002C0D0020020D4020020100C024000000000C2
S315200002D000000000000000003F065B4F666D7D07B2
S30D200002E07F67777C395E797196
S70520000000DA
