S022000044656275672F3230303331365F315F626974636F6E7665727465722E7331398A
S315200000000248854600F03CF8FEE7C04600C00120C5
S3152000001080B584B000AF786039607B6803221340D6
S31520000020032B15D023DC022B0ED020DC002B02D094
S31520000030012B05D01BE03B680F4A1340FB6016E0FE
S315200000403B68DB43FB6012E03B681B0CFB600EE069
S315200000503B681B0A1B041B0CFB60FA6880231B02EF
S31520000060134003D0FB68054A1343FB60C046FB6878
S315200000701800BD4604B080BD070200200000FFFF27
S3112000008080B500AFC046BD4680BDC0461E
S70520000000DA
