S028000044656275672F3230303331365F355F6972715F6272614B6F6D6D656E74617265722E73313932
S315200000000248854600F00CF9FEE7C04600C00120F4
S3152000001080B500AF094B1A68084B09490A431A6094
S31520000020084B00221A80084B1A68074BA921890021
S315200000300A431A60C046BD4680BDC046000C024039
S3152000004000545555040C02400C0C024080B500AFFC
S315200000501A4B1A68194B1A490A431A60194B1A681F
S31520000060184B07210A431A60174B1A68164B0321AF
S315200000700A431A60154B1A68144B03218A431A60E7
S31520000080124B1A68114B04210A431A600E4B1A6848
S315200000900D4B04218A431A600D4B0E4A1A600E4BF3
S315200000A00E4A1A600C4B0E4A1A600E4B1A680D4BFC
S315200000B080210A431A60C046BD4680BD08380140EB
S315200000C044040000003C0140083C01400C3C014037
S315200000D058C00120B10100205CC00120E1010020B0
S315200000E00102002000E100E080B582B000AF2D4B78
S315200000F080221A702C4B1B78DBB29AB2BB1D1821BA
S315200001000A401A80BB1D1B881022134003D0274BA0
S3152000011000221A7042E0BB1D1B880822134003D020
S31520000120224B01221A7039E01E4B40221A701E4BB8
S315200001301B78DBB29AB2BB1D18210A401A80BB1D60
S315200001401B881022134003D0184B02221A7025E078
S31520000150BB1D1B880822134003D0144B03221A70A0
S315200001601CE0104B20221A700F4B1B78DBB29AB280
S31520000170BB1D18210A401A80BB1D1B881022134064
S3152000018003D00A4B04221A7008E0BB1D1B880822E4
S31520000190134003D0054B05221A70C0461800BD46F1
S315200001A002B080BD140C0240100C024064020020F4
S315200001B080B500AFFFF798FF03001A00054B1A70B1
S315200001C0054BE0221A70054B01221A60C046BD4637
S315200001D080BDC04664020020140C0240143C01403D
S315200001E080B500AF044B02221A60044B00221A701D
S315200001F0C046BD4680BDC046143C01406502002075
S3152000020080B500AF044B04221A60044B01221A70F9
S31520000210C046BD4680BDC046143C01406502002054
S3152000022080B500AFFFF7F4FEFFF710FF094B012260
S315200002301A70094BE0221A70064B1B78002B03D04C
S31520000240064B0F221A70F7E7044A054B1B781370EA
S31520000250F2E7C04665020020140C0240150C02404D
S30D200002606402002000000000EA
S70520000000DA
