S013000044656275672F6D6F70342D332E733139EB
S315200000000248854600F0C2F8FEE7C04600C001203F
S3152000001080B500AF334B1B68082213405ED0314BAE
S315200000201A68304B08210A431A602F4B1B78DBB223
S315200000301A000123134014D02C4B1B78DBB22B4A19
S3152000004010210B43DBB21370284B1B78DBB2274AF7
S3152000005010218B43DBB21370254B1B685A1C244B93
S315200000601A60214B1B78DBB21A000223134012D0F0
S315200000701E4B1B78DBB21D4A20210B43DBB21370CB
S315200000801A4B1B78DBB2194A20218B43DBB2137043
S31520000090174B00221A60144B1B78DBB21A0004237C
S315200000A013401BD0114B1B78DBB2104A40210B4367
S315200000B0DBB213700D4B1B78DBB20C4A40218B430D
S315200000C0DBB213700B4B1B78DBB2FF2B03D1094B32
S315200000D000221A7002E0074BFF221A70C046BD4666
S315200000E080BDC046143C014010100240141002404E
S315200000F0A8010020140C024080B500AF174B002247
S315200001001A70174B174A1A80174BAA22D2011A8047
S31520000110164B00221A70164B00221A70154B1A68BD
S31520000120144B8021C9010A431A60134B1A68124BDB
S3152000013008210A431A60114B1A68104B08210A43FA
S315200001401A600F4B0F4A1A600F4B1A680E4B80210C
S3152000015089000A431A60C046BD4680BD140C024081
S31520000160000C0240555500000010024010100240BD
S315200001701410024008380140003C0140083C014070
S3152000018064C001201100002000E100E080B500AF2E
S31520000190FFF7B2FF024B1A68024BD2B21A70F9E788
S311200001A0A8010020140C02400000000002
S70520000000DA
