S010000044656275672F362D342E73313937
S315200000000248854600F03EF8FEE7C04600C00120C3
S3152000001080B500AF044B00221A70044B044A1A60C4
S31520000020C046BD4680BDC046140C0240000C0240AE
S315200000305555000080B500AF0F4B1B889BB20E4A6A
S3152000004001218B439BB213800C4B1B889BB20B4A1E
S3152000005002210B439BB21380094B012252421A8084
S31520000060054B1B889BB2044A01210B439BB213808C
S31520000070C046BD4680BDC046001000400C10004062
S315200000802C10004080B582B000AFBB1D00221A8024
S31520000090FFF7BEFFFFF7CEFF054B1B889BB2DAB2F8
S315200000A0BB1D1A80034ABB1D1B88DBB21370F3E706
S30D200000B024100040140C02404C
S70520000000DA
