S01B000044656275672F313930385F375F7379737469636B2E733139F2
S315200000000248854600F044F8FEE7C04600C00120BD
S3152000001080B500AF0C4B00221A600C4B0C4A1A60BC
S315200000200C4B00221A60084B05221A60C046064B6C
S315200000301A6880235B021340F9D0034B00221A6012
S31520000040C046BD4680BDC04610E000E014E000E09A
S315200000500FA4000018E000E080B500AF0A4B1A6834
S31520000060094B03218A431A60074A074B12681A6014
S31520000070064B1B889BB2054A01218B439BB21380FA
S31520000080C046BD4680BDC046000C0240040C02405E
S3152000009080B582B000AFFFF7DFFF104B00221A7049
S315200000A000237B6004E0FFF7B3FF7B6801337B60AE
S315200000B07A68FA23DB009A42F5DB084BFF221A7096
S315200000C000237B6004E0FFF7A3FF7B6801337B609E
S315200000D07A68FA23DB009A42F5DBDEE7140C02404D
S70520000000DA
