S019000044656275672F3230303630355F75707067312E7331394C
S315200000000248854600F054F8FEE7C04600C00120AD
S3152000001080B500AF0E4BFA22D2001A800D4B042277
S315200000201A700B4BFA22D2005A800A4B03225A70BE
S31520000030074B094A9A80074B05229A70044B074AB8
S31520000040DA80044B0422DA70C046BD4680BDC04625
S31520000050F0000020FC000020CE070000D2070000A0
S3152000006080B584B000AF78600023FB600023BB60BE
S3152000007012E00D4BBA685200D35A1A007B6893429D
S3152000008007D10A4ABB68D3181B781A00FB689B184D
S31520000090FB60BB680133BB60BB68032BE9DDFB68F3
S315200000A01800BD4604B080BDF0000020FC000020F2
S315200000B080B582B000AFFFF7ABFF0B4B1800FFF700
S315200000C0CFFF03007B60FA23DB001800FFF7C8FF91
S315200000D003003B607A683B68D218044B1A60002301
S315200000E01800BD4602B080BDE4070000F8000020DD
S315200000F000000000000000000000000000000000DA
S70520000000DA
