S010000044656275672F372D352E73313935
S315200000000248854600F025F9FEE7C04600C00120DB
S3152000001080B582B000AF78607B6800229A707B68DA
S3152000002000221A707B6800225A70C046BD4602B074
S3152000003080BD80B582B000AF78600A00FB1C1A70C4
S315200000407B689B783F2B01D900231BE07B681B78BC
S315200000501A007B689B18FA1C1278DA707B681B786A
S315200000600133DAB27B681A707B689B780133DAB287
S315200000707B689A707B681B78402B02D17B680022B4
S315200000801A7001231800BD4602B080BD80B582B02B
S3152000009000AF786039607B689B78002B01D1002304
S315200000A01BE07B685B781A007B689B18DA783B68D4
S315200000B01A707B689B78013BDAB27B689A707B6802
S315200000C05B780133DAB27B685A707B685B78402BA9
S315200000D002D17B6800225A7001231800BD4602B067
S315200000E080BD90B583B000AFFC1DBA1D094B110031
S315200000F01800FFF7CBFF03002370FB1D1B78002B96
S3152000010002D0BB1D1B7800E000231800BD4603B0BB
S3152000011090BDC046D802002090B583B000AF1C4BDE
S315200001201B889BB21A00202313400BD0184B9B88A8
S315200001309AB2FB1D1A70FB1D1A78164B1100180077
S31520000140FFF777FF124B1B889BB21A0080231340C0
S315200001501AD0BC1D7A1D104B11001800FFF796FF10
S3152000016003002370BB1D1B78002B05D07B1D1A783E
S31520000170074B92B29A8007E0054B9B899BB2044AB3
S3152000018080218B439BB29381C046BD4603B090BD70
S3152000019000100140D80200209402002080B500AF54
S315200001A00C4B0D4A1A600D4B1A680C4B20210A4342
S315200001B01A600B4B0B4A1A81094B00229A82084B74
S315200001C000221A82064B084A9A81C0461800BD466C
S315200001D080BDC046D4C001201901002004E100E002
S315200001E000100140D90200002C20000080B582B00A
S315200001F000AF0200FB1D1A70FB1D1A78084B110078
S315200002001800FFF716FF074B9B899BB2054A8021F2
S315200002100B439BB29381C046BD4602B080BDC0460B
S31520000220940200200010014080B582B000AF7860B3
S3152000023006E07B685A1C7A601B781800FFF7D6FF09
S315200002407B681B78002BF4D1C046C046BD4602B061
S3152000025080BD90B583B000AFFFF7A0FF0B4B180011
S31520000260FFF7D6FE0A4B1800FFF7D2FEFC1DFFF75C
S3152000027038FF03002370FB1D1B78002BF6D0FB1DD7
S315200002801B781800FFF7B2FFF0E7C0469402002063
S31520000290D80200200000000000000000000000003E
S315200002A00000000000000000000000000000000028
S315200002B00000000000000000000000000000000018
S315200002C00000000000000000000000000000000008
S315200002D000000000000000000000000000000000F8
S315200002E000000000000000000000000000000000E8
S315200002F000000000000000000000000000000000D8
S3152000030000000000000000000000000000000000C7
S31120000310000000000000000000000000BB
S70520000000DA
