S010000044656275672F372D342E73313936
S315200000000248854600F0A5F8FEE7C04600C001205C
S3152000001080B582B000AFFB1D054A12781A70044BDA
S3152000002000221A70FB1D1B781800BD4602B080BD49
S315200000308801002080B500AF154B1B889BB21A00A3
S315200000402023134005D0124B9B889BB2DAB2114B6A
S315200000501A700F4B9B899BB21A008023134013D032
S315200000600B4B1B889BB21A00802313400CD00A4BE3
S315200000701A78074B92B29A80054B9B899BB2044A09
S3152000008080218B439BB29381C046BD4680BDC0462E
S3152000009000100140880100208901002080B500AFB2
S315200000A00D4B00221A700D4B0D4A1A600D4B1A6823
S315200000B00C4B20210A431A600B4B0C4A1A810A4B1F
S315200000C000229A82084B00221A82074B084A9A81FC
S315200000D0C0461800BD4680BD88010020D4C001203E
S315200000E03500002004E100E000100140D9020000A4
S315200000F02C20000080B582B000AF0200FB1D1A70D4
S31520000100074BFA1D12781A70064B9B899BB2054A3B
S3152000011080210B439BB29381C046BD4602B080BD71
S31520000120890100200010014080B582B000AF7860C0
S3152000013006E07B685A1C7A601B781800FFF7DAFF06
S315200001407B681B78002BF4D1C046C046BD4602B062
S3152000015080BD90B583B000AFFFF7A0FF094B180014
S31520000160FFF7E2FFFC1DFFF753FF03002370FB1D83
S315200001701B78002BF6D0FB1D1B781800FFF7BAFF63
S31520000180F0E7C0468C010020000000005553415284
S31120000190542070726F6772616D000000D1
S70520000000DA
