S01B000044656275672F313930385F365F656E63727970742E733139F8
S315200000000248854600F048F8FEE7C04600C00120B9
S3152000001080B584B000AF78607B68FB600B23FB184B
S3152000002001221A702FE0FB681B780B217A181278B0
S315200000301340DBB2002B0DD0FB681B785BB27A181D
S31520000040127852B2D24352B213405BB2DAB2FB6894
S315200000501A7008E0FB681A780B23FB181B781343E9
S31520000060DAB2FB681A700B217A187B181B78DB181A
S3152000007013707B181B78002B02D17B1801221A7073
S31520000080FB680133FB60FB681B78002BCBD1C04695
S31520000090C046BD4604B080BD80B500AFC046BD4653
S309200000A080BD0000F9
S70520000000DA
