S011000044656275672F352D31352E73313905
S315200000000248854600F00AFAFEE7C04600C00120F5
S3152000001080B500AF0F4B00221A700F4B00221A70CA
S315200000200E4B0F4A1A600F4B1B880E4AFF210B40BE
S315200000309BB213800C4B1A680B4B1204120C1A60DD
S31520000040094B1A68084BAA2109040A431A60C046BC
S31520000050BD4680BD150C0240110C0240000C02402A
S3152000006055550055040C02400C0C024080B500AFDB
S315200000700C4B00221A600C4B29221A600B4B0022D3
S315200000801A60084B05221A60C046064B1A68802360
S315200000905B021340F9D0034B00221A60C046BD46CE
S315200000A080BDC04610E000E014E000E018E000E06B
S315200000B080B582B000AF78607B68FA229100180084
S315200000C000F0F8F903007B607B6801337B600AE06F
S315200000D0FFF7CCFFFFF7CAFFFFF7C8FFFFF7C6FF02
S315200000E07B68013B7B607B68002BF1D1C046C04614
S315200000F0BD4602B080BD80B582B000AF78607B6817
S31520000100FA229100180000F0D5F903007B607B6885
S3152000011001337B6007E0FA239B001800FFF7C8FF36
S315200001207B68013B7B607B68002BF4D1C046C046D0
S31520000130BD4602B080BDF0DF7047C046F1DF704794
S31520000140C046F2DF7047C046F3DF7047C04680B531
S3152000015082B000AF78607B68042B1BD07B68042BB1
S315200001601CD87B68032B11D07B68032B16D87B68A1
S31520000170012B03D07B68022B04D00FE00B4B1022FF
S315200001801A700FE0094B20221A700BE0074B402211
S315200001901A7007E0054B80221A7003E0034B0022F9
S315200001A01A70C046C046BD4602B080BD150C02403E
S315200001B080B582B000AF124AFB1D12781A70FB1D63
S315200001C01B780822134001D0042315E0FB1D1B7861
S315200001D00422134001D003230EE0FB1D1B780222CC
S315200001E0134001D0022307E0FB1D1B780122134098
S315200001F001D0012300E000231800BD4602B080BDD7
S31520000200110C024090B587B000AF3B00164A13CAC6
S3152000021013C312681A6001237B611AE07B691800F8
S31520000220FFF795FFFFF7C4FF03003B613B69002BF7
S315200002300CD00020FFF78BFF7B69013B9B001A0047
S315200002403B69D318013B3A00D35C09E07B69013353
S315200002507B617B69042BE1DD0020FFF778FFFF231C
S315200002601800BD4607B090BD3006002090B587B077
S3152000027000AF78607B68DB683B617B681B69FB604D
S3152000028000237B611CE07B68196808243B197A6986
S315200002900432042052008A18121812881A803B1938
S315200002A01B781A003B69D2183B195B781900FB684A
S315200002B0CB1819001000FFF744FF7B6901337B61DF
S315200002C07B681B681B687A699A42DCDBC046C0469D
S315200002D0BD4607B090BD90B587B000AF78607B680B
S315200002E0DB683B617B681B69FB6000237B611CE04C
S315200002F07B68196808243B197A6904320420520065
S315200003008A18121812881A803B191B781A003B6922
S31520000310D2183B195B781900FB68CB18190010001E
S31520000320FFF712FF7B6901337B617B681B681B68C3
S315200003307A699A42DCDBC046C046BD4607B090BD0E
S3152000034080B582B000AF78607B681800FFF7C3FFE6
S315200003507B68DA687B685B68D2187B68DA607B68C2
S315200003601A697B689B68D2187B681A617B68DB6890
S31520000370002B07DC7B685B685A427B685A607B6887
S315200003800122DA607B68DA687B681B685B68D318B1
S31520000390802B0BDD7B685B685A427B685A607B68E2
S315200003A01B685B688022D21A7B68DA607B681B69CF
S315200003B0002B07DC7B689B685A427B689A607B68C7
S315200003C001221A617B681A697B681B689B68D318AF
S315200003D0402B0BDD7B689B685A427B689A607B6862
S315200003E01B689B684022D21A7B681A617B681800BA
S315200003F0FFF73CFFC046BD4602B080BD80B584B045
S3152000040000AFF860B9607A60FB68BA685A60FB682A
S315200004107A689A60C046BD4604B080BD90B583B068
S3152000042000AF224B7B60FFF7F3FDFFF784FEFFF75B
S3152000043085FE7B68DB697A68100098471420FFF7F1
S315200004405AFEFC1CFFF7DEFE03002370FB1C1B7804
S31520000450082BEED89A00164BD3181B689F467B684C
S315200004601B6A78680022032198471DE07B681B6A77
S315200004700322514278680022984715E07B681B6A60
S3152000048078680022002198470EE07B681B6A0322C9
S31520000490524278680021984706E07B681B6A786894
S315200004A0032200219847C046C3E7C0460C06002019
S315200004B040060020002243088B4274D303098B4256
S315200004C05FD3030A8B4244D3030B8B4228D3030CFE
S315200004D08B420DD3FF22090212BA030C8B4202D3A0
S315200004E01212090265D0030B8B4219D300E0090AC8
S315200004F0C30B8B4201D3CB03C01A5241830B8B42D1
S3152000050001D38B03C01A5241430B8B4201D34B03B9
S31520000510C01A5241030B8B4201D30B03C01A52411E
S31520000520C30A8B4201D3CB02C01A5241830A8B42A3
S3152000053001D38B02C01A5241430A8B4201D34B028C
S31520000540C01A5241030A8B4201D30B02C01A5241F0
S31520000550CDD2C3098B4201D3CB01C01A52418309A4
S315200005608B4201D38B01C01A524143098B4201D3DE
S315200005704B01C01A524103098B4201D30B01C01A09
S315200005805241C3088B4201D3CB00C01A5241830883
S315200005908B4201D38B00C01A524143088B4201D3B0
S315200005A04B00C01A5241411A00D201465241104610
S315200005B07047FFE701B5002000F006F802BDC046EF
S315200005C00029F7D076E770477047C0460C00000038
S315200005D004000000040000000001000201000101E7
S315200005E001020103020002010202020303010302C7
S315200005F000000000000000000000000000000000D5
S31520000600000000000000000000000000CC050020D3
S3152000061000000000000000000100000001000000B2
S315200006206D020020D702002041030020FD03002098
S315200006300102030A0405060B0708090C0E000F0D1C
S3152000064032040020320400208A04002032040020D4
S315200006506C0400207C0400205E040020320400206C
S309200006609A040020B2
S70520000000DA
