S013000044656275672F6D6F70342D342E733139EA
S315200000000248854600F024F9FEE7C04600C00120DC
S3152000001080B500AF144B1B680122134021D0124B30
S315200000201A68114B01210A431A60104B1B78DBB268
S315200000301A000123134014D00D4B1B78DBB20C4A57
S3152000004010210B43DBB21370094B1B78DBB2084A35
S3152000005010218B43DBB21370064B1B685A1C054BD1
S315200000601A60C046BD4680BD143C014010100240B7
S31520000070141002406C02002080B500AF134B1B68A1
S31520000080022213401FD0114B1A68104B02210A433B
S315200000901A600F4B1B78DBB21A000223134012D0D2
S315200000A00C4B1B78DBB20B4A20210B43DBB21370BF
S315200000B0084B1B78DBB2074A20218B43DBB2137037
S315200000C0054B00221A60C046BD4680BD143C014047
S315200000D010100240141002406C02002080B500AFC0
S315200000E0184B1B680422134028D0164B1A68154B50
S315200000F004210A431A60144B1B78DBB21A0004232E
S3152000010013401BD0114B1B78DBB2104A40210B4306
S31520000110DBB213700D4B1B78DBB20C4A40218B43AC
S31520000120DBB213700A4B1B78DBB2FF2B03D1084BD3
S3152000013000221A7002E0064BFF221A70C046BD4606
S3152000014080BDC046143C01401010024014100240ED
S31520000150140C024080B500AF2C4BAA22D2011A8083
S315200001602B4B00221A702B4B00221A702A4B00228E
S315200001701A702A4B2A4A1A602A4B1A68294B2A498E
S315200001800A431A60294B1A68284B04210A431A602D
S31520000190264B1A68254B02210A431A60234B1A68FC
S315200001A0224B01210A431A60214B1A68204B042155
S315200001B00A431A601E4B1A681D4B02210A431A6015
S315200001C01B4B1A681A4B01210A431A60194B1A4A0B
S315200001D01A601A4B1A4A1A601A4B1B4A1A601B4B92
S315200001E01A681A4B802149000A431A60174B1A686D
S315200001F0164B80210A431A60144B1A68134B402170
S315200002000A431A60C046BD4680BDC0460010024063
S315200002101010024014100240140C0240000C024040
S31520000220555500000838014044040000003C0140B8
S31520000230083C014058C00120110000205CC001206C
S315200002407900002060C00120DD00002000E100E0F0
S3152000025080B500AFFFF77EFF024B1A68024BD2B281
S315200002601A70F9E76C020020140C0240000000000E
S70520000000DA
